:020000000328D3
:100006008316031385018601043088008312850157
:1000160086010819532804308500013086006630B1
:10002600FB007630FC00C130FD00FD0B1828FC0BF0
:100036001828FB0B182804308500023086003D3056
:10004600FB00E130FC003F30FD00FD0B2828FC0BD7
:100056002828FB0B2828000000000130850004300A
:1000660086006630FB007630FC00C130FD00FD0BDB
:100076003A28FC0B3A28FB0B3A280230850004305C
:1000860086003D30FB00E130FC003F30FD00FD0BFB
:100096004A28FC0B4A28FB0B4A280000000075285A
:1000A60004308500023086000B30FB002630FC0051
:1000B6005D30FD00FD0B5D28FC0B5D28FB0B5D280C
:1000C60000000000850186010B30FB002630FC0095
:1000D6005D30FD00FD0B6D28FC0B6D28FB0B6D28BC
:0800E600000000000C28762840
:02400E004A2F37
:00000001FF
