:020000000328D3
:100006008316031385018601831285018601043058
:100016008500023086003D30FB00E130FC003F30B9
:10002600FD00FD0B1428FC0B1428FB0B1428000004
:10003600000001308500043086006630FB00763013
:10004600FC00C130FD00FD0B2628FC0B2628FB0B0F
:10005600262802308500043086003D30FB00E13062
:10006600FC003F30FD00FD0B3628FC0B3628FB0B51
:100076003628000000000430850001308600663016
:10008600FB007630FC00C130FD00FD0B4828FC0B60
:0A0096004828FB0B48280A284F28D1
:02400E004A2F37
:00000001FF
