:020000000328D3
:100006000730831603139F00860187018801890143
:100016008312860187018801890106148610071557
:10002600871108168812091489102930FB009630AA
:10003600FC007F30FD00FD0B1E28FC0B1E28FB0B71
:100046001E2806148614071187110816881609102B
:1000560089102930FB009630FC007F30FD00FD0B37
:100066003228FC0B3228FB0B3228061086140715A3
:10007600871508128816091489142930FB00963052
:10008600FC007F30FD00FD0B4628FC0B4628FB0BD1
:1000960046280614861407158715081288120910B3
:1000A60089102930FB009630FC007F30FD00FD0BE7
:1000B6005A28FC0B5A28FB0B5A28061086140711DF
:1000C600871508128816091089142930FB00963006
:1000D600FC007F30FD00FD0B6E28FC0B6E28FB0B31
:0600E6006E2810287528A9
:02400E004A2F37
:00000001FF
